{
  "_format": "hh-sol-artifact-1",
  "contractName": "TokenSwap",
  "sourceName": "contracts/TokenSwap.sol",
  "abi": [
    {
      "constant": true,
      "inputs": [],
      "name": "PPM",
      "outputs": [
        {
          "name": "",
          "type": "uint32"
        }
      ],
      "payable": false,
      "stateMutability": "view",
      "type": "function"
    },
    {
      "constant": false,
      "inputs": [
        {
          "name": "_poolId",
          "type": "uint256"
        }
      ],
      "name": "closePool",
      "outputs": [],
      "payable": false,
      "stateMutability": "nonpayable",
      "type": "function"
    },
    {
      "constant": false,
      "inputs": [
        {
          "name": "_poolId",
          "type": "uint256"
        },
        {
          "name": "_tokenAliquidity",
          "type": "uint256"
        },
        {
          "name": "_tokenBliquidity",
          "type": "uint256"
        }
      ],
      "name": "addLiquidity",
      "outputs": [],
      "payable": false,
      "stateMutability": "nonpayable",
      "type": "function"
    },
    {
      "constant": true,
      "inputs": [],
      "name": "formula",
      "outputs": [
        {
          "name": "",
          "type": "address"
        }
      ],
      "payable": false,
      "stateMutability": "view",
      "type": "function"
    },
    {
      "constant": true,
      "inputs": [
        {
          "name": "",
          "type": "uint256"
        }
      ],
      "name": "tokens",
      "outputs": [
        {
          "name": "",
          "type": "address"
        }
      ],
      "payable": false,
      "stateMutability": "view",
      "type": "function"
    },
    {
      "constant": false,
      "inputs": [
        {
          "name": "_poolId",
          "type": "uint256"
        },
        {
          "name": "_tokenAliquidity",
          "type": "uint256"
        },
        {
          "name": "_tokenBliquidity",
          "type": "uint256"
        }
      ],
      "name": "removeLiquidity",
      "outputs": [],
      "payable": false,
      "stateMutability": "nonpayable",
      "type": "function"
    },
    {
      "constant": true,
      "inputs": [
        {
          "name": "",
          "type": "uint256"
        }
      ],
      "name": "pools",
      "outputs": [
        {
          "name": "provider",
          "type": "address"
        },
        {
          "name": "tokenAsupply",
          "type": "uint256"
        },
        {
          "name": "tokenBsupply",
          "type": "uint256"
        },
        {
          "name": "reserveRatio",
          "type": "uint32"
        },
        {
          "name": "exchageRate",
          "type": "uint256"
        },
        {
          "name": "slippage",
          "type": "uint256"
        },
        {
          "name": "isActive",
          "type": "bool"
        },
        {
          "name": "tokenA",
          "type": "address"
        },
        {
          "name": "tokenB",
          "type": "address"
        }
      ],
      "payable": false,
      "stateMutability": "view",
      "type": "function"
    },
    {
      "constant": false,
      "inputs": [
        {
          "name": "_poolId",
          "type": "uint256"
        },
        {
          "name": "_tokenAamount",
          "type": "uint256"
        }
      ],
      "name": "buy",
      "outputs": [],
      "payable": false,
      "stateMutability": "nonpayable",
      "type": "function"
    },
    {
      "constant": false,
      "inputs": [
        {
          "name": "_poolId",
          "type": "uint256"
        },
        {
          "name": "_tokenBamount",
          "type": "uint256"
        }
      ],
      "name": "sell",
      "outputs": [],
      "payable": false,
      "stateMutability": "nonpayable",
      "type": "function"
    },
    {
      "constant": false,
      "inputs": [
        {
          "name": "_tokenAaddress",
          "type": "address"
        },
        {
          "name": "_tokenBaddress",
          "type": "address"
        },
        {
          "name": "_tokenAsupply",
          "type": "uint256"
        },
        {
          "name": "_tokenBsupply",
          "type": "uint256"
        },
        {
          "name": "_slippage",
          "type": "uint256"
        },
        {
          "name": "_exchangeRate",
          "type": "uint256"
        }
      ],
      "name": "createPool",
      "outputs": [],
      "payable": false,
      "stateMutability": "nonpayable",
      "type": "function"
    },
    {
      "constant": true,
      "inputs": [],
      "name": "PCT_BASE",
      "outputs": [
        {
          "name": "",
          "type": "uint256"
        }
      ],
      "payable": false,
      "stateMutability": "view",
      "type": "function"
    },
    {
      "inputs": [
        {
          "name": "_formula",
          "type": "address"
        }
      ],
      "payable": false,
      "stateMutability": "nonpayable",
      "type": "constructor"
    },
    {
      "anonymous": false,
      "inputs": [
        {
          "indexed": true,
          "name": "provider",
          "type": "address"
        },
        {
          "indexed": false,
          "name": "id",
          "type": "uint256"
        },
        {
          "indexed": false,
          "name": "tokenAsupply",
          "type": "uint256"
        },
        {
          "indexed": false,
          "name": "tokenBsupply",
          "type": "uint256"
        },
        {
          "indexed": false,
          "name": "exchangeRate",
          "type": "uint256"
        }
      ],
      "name": "PoolCreated",
      "type": "event"
    },
    {
      "anonymous": false,
      "inputs": [
        {
          "indexed": true,
          "name": "reciever",
          "type": "address"
        },
        {
          "indexed": false,
          "name": "id",
          "type": "uint256"
        },
        {
          "indexed": false,
          "name": "tokenAsupply",
          "type": "uint256"
        },
        {
          "indexed": false,
          "name": "tokenBsupply",
          "type": "uint256"
        },
        {
          "indexed": false,
          "name": "exchangeRate",
          "type": "uint256"
        }
      ],
      "name": "PoolDataUpdated",
      "type": "event"
    },
    {
      "anonymous": false,
      "inputs": [
        {
          "indexed": true,
          "name": "provider",
          "type": "address"
        },
        {
          "indexed": false,
          "name": "id",
          "type": "uint256"
        }
      ],
      "name": "PoolClosed",
      "type": "event"
    },
    {
      "anonymous": false,
      "inputs": [
        {
          "indexed": true,
          "name": "token",
          "type": "address"
        },
        {
          "indexed": false,
          "name": "id",
          "type": "uint256"
        }
      ],
      "name": "TokenInitialized",
      "type": "event"
    },
    {
      "anonymous": false,
      "inputs": [
        {
          "indexed": true,
          "name": "buyer",
          "type": "address"
        },
        {
          "indexed": false,
          "name": "poolid",
          "type": "uint256"
        },
        {
          "indexed": false,
          "name": "amount",
          "type": "uint256"
        }
      ],
      "name": "TokenBought",
      "type": "event"
    },
    {
      "anonymous": false,
      "inputs": [
        {
          "indexed": true,
          "name": "buyer",
          "type": "address"
        },
        {
          "indexed": false,
          "name": "poolid",
          "type": "uint256"
        },
        {
          "indexed": false,
          "name": "amount",
          "type": "uint256"
        }
      ],
      "name": "TokenSold",
      "type": "event"
    }
  ],
  "bytecode": "0x608060405234801561001057600080fd5b5060405160208061473583398101806040528101908080519060200190929190505050806000806101000a81548173ffffffffffffffffffffffffffffffffffffffff021916908373ffffffffffffffffffffffffffffffffffffffff160217905550506146b2806100836000396000f3006080604052600436106100af576000357c0100000000000000000000000000000000000000000000000000000000900463ffffffff1680630d720bbc146100b457806337de615f146100eb578063422f1043146101185780634b75f54f146101595780634f64b2be146101b0578063857620e11461021d578063ac4afa381461025e578063d6febde81461036b578063d79875eb146103a2578063e48b39f2146103d9578063fc157cb414610464575b600080fd5b3480156100c057600080fd5b506100c961048f565b604051808263ffffffff1663ffffffff16815260200191505060405180910390f35b3480156100f757600080fd5b5061011660048036038101908080359060200190929190505050610496565b005b34801561012457600080fd5b506101576004803603810190808035906020019092919080359060200190929190803590602001909291905050506106fd565b005b34801561016557600080fd5b5061016e610b70565b604051808273ffffffffffffffffffffffffffffffffffffffff1673ffffffffffffffffffffffffffffffffffffffff16815260200191505060405180910390f35b3480156101bc57600080fd5b506101db60048036038101908080359060200190929190505050610b95565b604051808273ffffffffffffffffffffffffffffffffffffffff1673ffffffffffffffffffffffffffffffffffffffff16815260200191505060405180910390f35b34801561022957600080fd5b5061025c600480360381019080803590602001909291908035906020019092919080359060200190929190505050610bd3565b005b34801561026a57600080fd5b5061028960048036038101908080359060200190929190505050610f6b565b604051808a73ffffffffffffffffffffffffffffffffffffffff1673ffffffffffffffffffffffffffffffffffffffff1681526020018981526020018881526020018763ffffffff1663ffffffff168152602001868152602001858152602001841515151581526020018373ffffffffffffffffffffffffffffffffffffffff1673ffffffffffffffffffffffffffffffffffffffff1681526020018273ffffffffffffffffffffffffffffffffffffffff1673ffffffffffffffffffffffffffffffffffffffff168152602001995050505050505050505060405180910390f35b34801561037757600080fd5b506103a06004803603810190808035906020019092919080359060200190929190505050611045565b005b3480156103ae57600080fd5b506103d76004803603810190808035906020019092919080359060200190929190505050611433565b005b3480156103e557600080fd5b50610462600480360381019080803573ffffffffffffffffffffffffffffffffffffffff169060200190929190803573ffffffffffffffffffffffffffffffffffffffff16906020019092919080359060200190929190803590602001909291908035906020019092919080359060200190929190505050611714565b005b34801561047057600080fd5b50610479611a59565b6040518082815260200191505060405180910390f35b620f424081565b6002818154811015156104a557fe5b906000526020600020906008020160000160009054906101000a900473ffffffffffffffffffffffffffffffffffffffff1673ffffffffffffffffffffffffffffffffffffffff163373ffffffffffffffffffffffffffffffffffffffff16146040805190810160405280600f81526020017f4d4d5f4e4f545f50524f564944455200000000000000000000000000000000008152509015156105e3576040517f08c379a00000000000000000000000000000000000000000000000000000000081526004018080602001828103825283818151815260200191508051906020019080838360005b838110156105a857808201518184015260208101905061058d565b50505050905090810190601f1680156105d55780820380516001836020036101000a031916815260200191505b509250505060405180910390fd5b506002818154811015156105f357fe5b906000526020600020906008020160060160009054906101000a900460ff166040805190810160405280601281526020017f4d4d5f504f4f4c5f4e4f545f41435449564500000000000000000000000000008152509015156106f0576040517f08c379a00000000000000000000000000000000000000000000000000000000081526004018080602001828103825283818151815260200191508051906020019080838360005b838110156106b557808201518184015260208101905061069a565b50505050905090810190601f1680156106e25780820380516001836020036101000a031916815260200191505b509250505060405180910390fd5b506106fa81611a65565b50565b60008060028581548110151561070f57fe5b906000526020600020906008020160000160009054906101000a900473ffffffffffffffffffffffffffffffffffffffff1673ffffffffffffffffffffffffffffffffffffffff163373ffffffffffffffffffffffffffffffffffffffff16146040805190810160405280600f81526020017f4d4d5f4e4f545f50524f5649444552000000000000000000000000000000000081525090151561084d576040517f08c379a00000000000000000000000000000000000000000000000000000000081526004018080602001828103825283818151815260200191508051906020019080838360005b838110156108125780820151818401526020810190506107f7565b50505050905090810190601f16801561083f5780820380516001836020036101000a031916815260200191505b509250505060405180910390fd5b5060028581548110151561085d57fe5b906000526020600020906008020160060160009054906101000a900460ff166040805190810160405280601281526020017f4d4d5f504f4f4c5f4e4f545f414354495645000000000000000000000000000081525090151561095a576040517f08c379a00000000000000000000000000000000000000000000000000000000081526004018080602001828103825283818151815260200191508051906020019080838360005b8381101561091f578082015181840152602081019050610904565b50505050905090810190601f16801561094c5780820380516001836020036101000a031916815260200191505b509250505060405180910390fd5b506003600060028781548110151561096e57fe5b906000526020600020906008020160060160019054906101000a900473ffffffffffffffffffffffffffffffffffffffff1673ffffffffffffffffffffffffffffffffffffffff1673ffffffffffffffffffffffffffffffffffffffff168152602001908152602001600020549150600360006002878154811015156109f057fe5b906000526020600020906008020160070160009054906101000a900473ffffffffffffffffffffffffffffffffffffffff1673ffffffffffffffffffffffffffffffffffffffff1673ffffffffffffffffffffffffffffffffffffffff168152602001908152602001600020549050610a6a828533612130565b8015610a7d5750610a7c818433612130565b5b6040805190810160405280601781526020017f4d4d5f494e53554646494349454e545f42414c414e4345000000000000000000815250901515610b5b576040517f08c379a00000000000000000000000000000000000000000000000000000000081526004018080602001828103825283818151815260200191508051906020019080838360005b83811015610b20578082015181840152602081019050610b05565b50505050905090810190601f168015610b4d5780820380516001836020036101000a031916815260200191505b509250505060405180910390fd5b50610b698583838787612252565b5050505050565b6000809054906101000a900473ffffffffffffffffffffffffffffffffffffffff1681565b600181815481101515610ba457fe5b906000526020600020016000915054906101000a900473ffffffffffffffffffffffffffffffffffffffff1681565b600283815481101515610be257fe5b906000526020600020906008020160000160009054906101000a900473ffffffffffffffffffffffffffffffffffffffff1673ffffffffffffffffffffffffffffffffffffffff163373ffffffffffffffffffffffffffffffffffffffff16146040805190810160405280600f81526020017f4d4d5f4e4f545f50524f56494445520000000000000000000000000000000000815250901515610d20576040517f08c379a00000000000000000000000000000000000000000000000000000000081526004018080602001828103825283818151815260200191508051906020019080838360005b83811015610ce5578082015181840152602081019050610cca565b50505050905090810190601f168015610d125780820380516001836020036101000a031916815260200191505b509250505060405180910390fd5b50600283815481101515610d3057fe5b906000526020600020906008020160060160009054906101000a900460ff166040805190810160405280601281526020017f4d4d5f504f4f4c5f4e4f545f4143544956450000000000000000000000000000815250901515610e2d576040517f08c379a00000000000000000000000000000000000000000000000000000000081526004018080602001828103825283818151815260200191508051906020019080838360005b83811015610df2578082015181840152602081019050610dd7565b50505050905090810190601f168015610e1f5780820380516001836020036101000a031916815260200191505b509250505060405180910390fd5b50600283815481101515610e3d57fe5b90600052602060002090600802016001015482108015610e7c5750600283815481101515610e6757fe5b90600052602060002090600802016002015481105b6040805190810160405280601781526020017f4d4d5f494e53554646494349454e545f42414c414e4345000000000000000000815250901515610f5a576040517f08c379a00000000000000000000000000000000000000000000000000000000081526004018080602001828103825283818151815260200191508051906020019080838360005b83811015610f1f578082015181840152602081019050610f04565b50505050905090810190601f168015610f4c5780820380516001836020036101000a031916815260200191505b509250505060405180910390fd5b50610f6683838361259f565b505050565b600281815481101515610f7a57fe5b90600052602060002090600802016000915090508060000160009054906101000a900473ffffffffffffffffffffffffffffffffffffffff16908060010154908060020154908060030160009054906101000a900463ffffffff16908060040154908060050154908060060160009054906101000a900460ff16908060060160019054906101000a900473ffffffffffffffffffffffffffffffffffffffff16908060070160009054906101000a900473ffffffffffffffffffffffffffffffffffffffff16905089565b600080600060028581548110151561105957fe5b906000526020600020906008020160060160009054906101000a900460ff166040805190810160405280601281526020017f4d4d5f504f4f4c5f4e4f545f4143544956450000000000000000000000000000815250901515611156576040517f08c379a00000000000000000000000000000000000000000000000000000000081526004018080602001828103825283818151815260200191508051906020019080838360005b8381101561111b578082015181840152602081019050611100565b50505050905090810190601f1680156111485780820380516001836020036101000a031916815260200191505b509250505060405180910390fd5b506003600060028781548110151561116a57fe5b906000526020600020906008020160060160019054906101000a900473ffffffffffffffffffffffffffffffffffffffff1673ffffffffffffffffffffffffffffffffffffffff1673ffffffffffffffffffffffffffffffffffffffff168152602001908152602001600020549250600360006002878154811015156111ec57fe5b906000526020600020906008020160070160009054906101000a900473ffffffffffffffffffffffffffffffffffffffff1673ffffffffffffffffffffffffffffffffffffffff1673ffffffffffffffffffffffffffffffffffffffff16815260200190815260200160002054915060018281548110151561126a57fe5b9060005260206000200160009054906101000a900473ffffffffffffffffffffffffffffffffffffffff1673ffffffffffffffffffffffffffffffffffffffff166318160ddd6040518163ffffffff167c0100000000000000000000000000000000000000000000000000000000028152600401602060405180830381600087803b1580156112f857600080fd5b505af115801561130c573d6000803e3d6000fd5b505050506040513d602081101561132257600080fd5b81019080805190602001909291905050509050611340838533612130565b6040805190810160405280601781526020017f4d4d5f494e53554646494349454e545f42414c414e434500000000000000000081525090151561141e576040517f08c379a00000000000000000000000000000000000000000000000000000000081526004018080602001828103825283818151815260200191508051906020019080838360005b838110156113e35780820151818401526020810190506113c8565b50505050905090810190601f1680156114105780820380516001836020036101000a031916815260200191505b509250505060405180910390fd5b5061142c858484878561298b565b5050505050565b60008060006003600060028781548110151561144b57fe5b906000526020600020906008020160060160019054906101000a900473ffffffffffffffffffffffffffffffffffffffff1673ffffffffffffffffffffffffffffffffffffffff1673ffffffffffffffffffffffffffffffffffffffff168152602001908152602001600020549250600360006002878154811015156114cd57fe5b906000526020600020906008020160070160009054906101000a900473ffffffffffffffffffffffffffffffffffffffff1673ffffffffffffffffffffffffffffffffffffffff1673ffffffffffffffffffffffffffffffffffffffff16815260200190815260200160002054915060018281548110151561154b57fe5b9060005260206000200160009054906101000a900473ffffffffffffffffffffffffffffffffffffffff1673ffffffffffffffffffffffffffffffffffffffff166318160ddd6040518163ffffffff167c0100000000000000000000000000000000000000000000000000000000028152600401602060405180830381600087803b1580156115d957600080fd5b505af11580156115ed573d6000803e3d6000fd5b505050506040513d602081101561160357600080fd5b81019080805190602001909291905050509050611621828533612130565b6040805190810160405280601781526020017f4d4d5f494e53554646494349454e545f42414c414e43450000000000000000008152509015156116ff576040517f08c379a00000000000000000000000000000000000000000000000000000000081526004018080602001828103825283818151815260200191508051906020019080838360005b838110156116c45780820151818401526020810190506116a9565b50505050905090810190601f1680156116f15780820380516001836020036101000a031916815260200191505b509250505060405180910390fd5b5061170d8584848785612f90565b5050505050565b61171f8484836136a2565b6040805190810160405280601481526020017f4d4d5f504f4f4c5f4e4f545f42414c414e4345440000000000000000000000008152509015156117fd576040517f08c379a00000000000000000000000000000000000000000000000000000000081526004018080602001828103825283818151815260200191508051906020019080838360005b838110156117c25780820151818401526020810190506117a7565b50505050905090810190601f1680156117ef5780820380516001836020036101000a031916815260200191505b509250505060405180910390fd5b50600560003373ffffffffffffffffffffffffffffffffffffffff1673ffffffffffffffffffffffffffffffffffffffff16815260200190815260200160002060008787604051602001808373ffffffffffffffffffffffffffffffffffffffff1673ffffffffffffffffffffffffffffffffffffffff166c010000000000000000000000000281526014018273ffffffffffffffffffffffffffffffffffffffff1673ffffffffffffffffffffffffffffffffffffffff166c01000000000000000000000000028152601401925050506040516020818303038152906040526040518082805190602001908083835b60208310151561191257805182526020820191506020810190506020830392506118ed565b6001836020036101000a03801982511681845116808217855250505050505090500191505060405180910390206000191660001916815260200190815260200160002060009054906101000a900460ff16156040805190810160405280600e81526020017f4d4d5f504f4f4c5f455849535453000000000000000000000000000000000000815250901515611a42576040517f08c379a00000000000000000000000000000000000000000000000000000000081526004018080602001828103825283818151815260200191508051906020019080838360005b83811015611a075780820151818401526020810190506119ec565b50505050905090810190601f168015611a345780820380516001836020036101000a031916815260200191505b509250505060405180910390fd5b50611a518686868686866136dd565b505050505050565b670de0b6b3a764000081565b60008060036000600285815481101515611a7b57fe5b906000526020600020906008020160060160019054906101000a900473ffffffffffffffffffffffffffffffffffffffff1673ffffffffffffffffffffffffffffffffffffffff1673ffffffffffffffffffffffffffffffffffffffff16815260200190815260200160002054915060036000600285815481101515611afd57fe5b906000526020600020906008020160070160009054906101000a900473ffffffffffffffffffffffffffffffffffffffff1673ffffffffffffffffffffffffffffffffffffffff1673ffffffffffffffffffffffffffffffffffffffff168152602001908152602001600020549050600182815481101515611b7b57fe5b9060005260206000200160009054906101000a900473ffffffffffffffffffffffffffffffffffffffff1673ffffffffffffffffffffffffffffffffffffffff1663a9059cbb33600286815481101515611bd157fe5b9060005260206000209060080201600101546040518363ffffffff167c0100000000000000000000000000000000000000000000000000000000028152600401808373ffffffffffffffffffffffffffffffffffffffff1673ffffffffffffffffffffffffffffffffffffffff16815260200182815260200192505050602060405180830381600087803b158015611c6857600080fd5b505af1158015611c7c573d6000803e3d6000fd5b505050506040513d6020811015611c9257600080fd5b810190808051906020019092919050505050600181815481101515611cb357fe5b9060005260206000200160009054906101000a900473ffffffffffffffffffffffffffffffffffffffff1673ffffffffffffffffffffffffffffffffffffffff1663a9059cbb33600286815481101515611d0957fe5b9060005260206000209060080201600201546040518363ffffffff167c0100000000000000000000000000000000000000000000000000000000028152600401808373ffffffffffffffffffffffffffffffffffffffff1673ffffffffffffffffffffffffffffffffffffffff16815260200182815260200192505050602060405180830381600087803b158015611da057600080fd5b505af1158015611db4573d6000803e3d6000fd5b505050506040513d6020811015611dca57600080fd5b8101908080519060200190929190505050506000600284815481101515611ded57fe5b906000526020600020906008020160060160006101000a81548160ff0219169083151502179055506000600284815481101515611e2657fe5b9060005260206000209060080201600101819055506000600284815481101515611e4c57fe5b9060005260206000209060080201600201819055506000600284815481101515611e7257fe5b906000526020600020906008020160030160006101000a81548163ffffffff021916908363ffffffff1602179055506000600284815481101515611eb257fe5b9060005260206000209060080201600501819055506000600284815481101515611ed857fe5b9060005260206000209060080201600401819055506000600560003373ffffffffffffffffffffffffffffffffffffffff1673ffffffffffffffffffffffffffffffffffffffff1681526020019081526020016000206000600286815481101515611f3f57fe5b906000526020600020906008020160060160019054906101000a900473ffffffffffffffffffffffffffffffffffffffff16600287815481101515611f8057fe5b906000526020600020906008020160070160009054906101000a900473ffffffffffffffffffffffffffffffffffffffff16604051602001808373ffffffffffffffffffffffffffffffffffffffff1673ffffffffffffffffffffffffffffffffffffffff166c010000000000000000000000000281526014018273ffffffffffffffffffffffffffffffffffffffff1673ffffffffffffffffffffffffffffffffffffffff166c01000000000000000000000000028152601401925050506040516020818303038152906040526040518082805190602001908083835b602083101515612083578051825260208201915060208101905060208303925061205e565b6001836020036101000a03801982511681845116808217855250505050505090500191505060405180910390206000191660001916815260200190815260200160002060006101000a81548160ff0219169083151502179055503373ffffffffffffffffffffffffffffffffffffffff167f54d833a6369fbb6af4373700bdaf73d7a1ad1be05825bc9475be295d43a5d7bb846040518082815260200191505060405180910390a2505050565b60008060018581548110151561214257fe5b9060005260206000200160009054906101000a900473ffffffffffffffffffffffffffffffffffffffff1673ffffffffffffffffffffffffffffffffffffffff166370a08231846040518263ffffffff167c0100000000000000000000000000000000000000000000000000000000028152600401808273ffffffffffffffffffffffffffffffffffffffff1673ffffffffffffffffffffffffffffffffffffffff168152602001915050602060405180830381600087803b15801561220757600080fd5b505af115801561221b573d6000803e3d6000fd5b505050506040513d602081101561223157600080fd5b81019080805190602001909291905050509050838110159150509392505050565b600080600060018781548110151561226657fe5b9060005260206000200160009054906101000a900473ffffffffffffffffffffffffffffffffffffffff1673ffffffffffffffffffffffffffffffffffffffff166323b872dd3330886040518463ffffffff167c0100000000000000000000000000000000000000000000000000000000028152600401808473ffffffffffffffffffffffffffffffffffffffff1673ffffffffffffffffffffffffffffffffffffffff1681526020018373ffffffffffffffffffffffffffffffffffffffff1673ffffffffffffffffffffffffffffffffffffffff1681526020018281526020019350505050602060405180830381600087803b15801561236757600080fd5b505af115801561237b573d6000803e3d6000fd5b505050506040513d602081101561239157600080fd5b8101908080519060200190929190505050506001868154811015156123b257fe5b9060005260206000200160009054906101000a900473ffffffffffffffffffffffffffffffffffffffff1673ffffffffffffffffffffffffffffffffffffffff166323b872dd3330876040518463ffffffff167c0100000000000000000000000000000000000000000000000000000000028152600401808473ffffffffffffffffffffffffffffffffffffffff1673ffffffffffffffffffffffffffffffffffffffff1681526020018373ffffffffffffffffffffffffffffffffffffffff1673ffffffffffffffffffffffffffffffffffffffff1681526020018281526020019350505050602060405180830381600087803b1580156124b357600080fd5b505af11580156124c7573d6000803e3d6000fd5b505050506040513d60208110156124dd57600080fd5b8101908080519060200190929190505050506125228560028a81548110151561250257fe5b906000526020600020906008020160010154613ebe90919063ffffffff16565b92506125578460028a81548110151561253757fe5b906000526020600020906008020160020154613ebe90919063ffffffff16565b91506125878261257985620f424063ffffffff16613eda90919063ffffffff16565b613f1290919063ffffffff16565b905061259588848484613f28565b5050505050505050565b60008060008060006003600060028a8154811015156125ba57fe5b906000526020600020906008020160060160019054906101000a900473ffffffffffffffffffffffffffffffffffffffff1673ffffffffffffffffffffffffffffffffffffffff1673ffffffffffffffffffffffffffffffffffffffff1681526020019081526020016000205494506003600060028a81548110151561263c57fe5b906000526020600020906008020160070160009054906101000a900473ffffffffffffffffffffffffffffffffffffffff1673ffffffffffffffffffffffffffffffffffffffff1673ffffffffffffffffffffffffffffffffffffffff1681526020019081526020016000205493506001858154811015156126ba57fe5b9060005260206000200160009054906101000a900473ffffffffffffffffffffffffffffffffffffffff1673ffffffffffffffffffffffffffffffffffffffff1663a9059cbb33896040518363ffffffff167c0100000000000000000000000000000000000000000000000000000000028152600401808373ffffffffffffffffffffffffffffffffffffffff1673ffffffffffffffffffffffffffffffffffffffff16815260200182815260200192505050602060405180830381600087803b15801561278757600080fd5b505af115801561279b573d6000803e3d6000fd5b505050506040513d60208110156127b157600080fd5b8101908080519060200190929190505050506001848154811015156127d257fe5b9060005260206000200160009054906101000a900473ffffffffffffffffffffffffffffffffffffffff1673ffffffffffffffffffffffffffffffffffffffff1663a9059cbb33886040518363ffffffff167c0100000000000000000000000000000000000000000000000000000000028152600401808373ffffffffffffffffffffffffffffffffffffffff1673ffffffffffffffffffffffffffffffffffffffff16815260200182815260200192505050602060405180830381600087803b15801561289f57600080fd5b505af11580156128b3573d6000803e3d6000fd5b505050506040513d60208110156128c957600080fd5b81019080805190602001909291905050505061290e8760028a8154811015156128ee57fe5b90600052602060002090600802016001015461429d90919063ffffffff16565b92506129438660028a81548110151561292357fe5b90600052602060002090600802016002015461429d90919063ffffffff16565b91506129738261296585620f424063ffffffff16613eda90919063ffffffff16565b613f1290919063ffffffff16565b905061298188848484613f28565b5050505050505050565b600080600080600080600080600060028e8154811015156129a857fe5b906000526020600020906008020160020154985060028e8154811015156129cb57fe5b906000526020600020906008020160010154975060028e8154811015156129ee57fe5b906000526020600020906008020160030160009054906101000a900463ffffffff16965060028e815481101515612a2157fe5b906000526020600020906008020160040154955060028e815481101515612a4457fe5b90600052602060002090600802016005015494506000809054906101000a900473ffffffffffffffffffffffffffffffffffffffff1673ffffffffffffffffffffffffffffffffffffffff166329a00e7c8b8b8a8f6040518563ffffffff167c0100000000000000000000000000000000000000000000000000000000028152600401808581526020018481526020018363ffffffff1663ffffffff168152602001828152602001945050505050602060405180830381600087803b158015612b0c57600080fd5b505af1158015612b20573d6000803e3d6000fd5b505050506040513d6020811015612b3657600080fd5b81019080805190602001909291905050509350612b818b612b7b620f424063ffffffff16612b6d8a89613eda90919063ffffffff16565b613f1290919063ffffffff16565b876142b6565b6040805190810160405280601a81526020017f4d4d5f534c4950504147455f4c494d49545f4558434545444544000000000000815250901515612c5f576040517f08c379a00000000000000000000000000000000000000000000000000000000081526004018080602001828103825283818151815260200191508051906020019080838360005b83811015612c24578082015181840152602081019050612c09565b50505050905090810190601f168015612c515780820380516001836020036101000a031916815260200191505b509250505060405180910390fd5b50612c73848a61429d90919063ffffffff16565b9250612c888b89613ebe90919063ffffffff16565b9150612cb883612caa84620f424063ffffffff16613eda90919063ffffffff16565b613f1290919063ffffffff16565b905060018d815481101515612cc957fe5b9060005260206000200160009054906101000a900473ffffffffffffffffffffffffffffffffffffffff1673ffffffffffffffffffffffffffffffffffffffff166323b872dd33308e6040518463ffffffff167c0100000000000000000000000000000000000000000000000000000000028152600401808473ffffffffffffffffffffffffffffffffffffffff1673ffffffffffffffffffffffffffffffffffffffff1681526020018373ffffffffffffffffffffffffffffffffffffffff1673ffffffffffffffffffffffffffffffffffffffff1681526020018281526020019350505050602060405180830381600087803b158015612dca57600080fd5b505af1158015612dde573d6000803e3d6000fd5b505050506040513d6020811015612df457600080fd5b81019080805190602001909291905050505060018c815481101515612e1557fe5b9060005260206000200160009054906101000a900473ffffffffffffffffffffffffffffffffffffffff1673ffffffffffffffffffffffffffffffffffffffff1663a9059cbb33866040518363ffffffff167c0100000000000000000000000000000000000000000000000000000000028152600401808373ffffffffffffffffffffffffffffffffffffffff1673ffffffffffffffffffffffffffffffffffffffff16815260200182815260200192505050602060405180830381600087803b158015612ee257600080fd5b505af1158015612ef6573d6000803e3d6000fd5b505050506040513d6020811015612f0c57600080fd5b8101908080519060200190929190505050503373ffffffffffffffffffffffffffffffffffffffff167f28cab0d660ed8aedd61a8c9db00b97f6a2d67e07d87795994f440b18bc5f1aa38f86604051808381526020018281526020019250505060405180910390a2612f808e838584613f28565b5050505050505050505050505050565b600080600080600080600080600060028e815481101515612fad57fe5b906000526020600020906008020160060160009054906101000a900460ff166040805190810160405280601281526020017f4d4d5f504f4f4c5f4e4f545f41435449564500000000000000000000000000008152509015156130aa576040517f08c379a00000000000000000000000000000000000000000000000000000000081526004018080602001828103825283818151815260200191508051906020019080838360005b8381101561306f578082015181840152602081019050613054565b50505050905090810190601f16801561309c5780820380516001836020036101000a031916815260200191505b509250505060405180910390fd5b5060028e8154811015156130ba57fe5b906000526020600020906008020160020154985060028e8154811015156130dd57fe5b906000526020600020906008020160010154975060028e81548110151561310057fe5b906000526020600020906008020160030160009054906101000a900463ffffffff16965060028e81548110151561313357fe5b906000526020600020906008020160040154955060028e81548110151561315657fe5b90600052602060002090600802016005015494506000809054906101000a900473ffffffffffffffffffffffffffffffffffffffff1673ffffffffffffffffffffffffffffffffffffffff166349f9b0f78b8b8a8f6040518563ffffffff167c0100000000000000000000000000000000000000000000000000000000028152600401808581526020018481526020018363ffffffff1663ffffffff168152602001828152602001945050505050602060405180830381600087803b15801561321e57600080fd5b505af1158015613232573d6000803e3d6000fd5b505050506040513d602081101561324857600080fd5b8101908080519060200190929190505050935061329361328c620f424063ffffffff1661327e898f613eda90919063ffffffff16565b613f1290919063ffffffff16565b85876142b6565b6040805190810160405280601a81526020017f4d4d5f534c4950504147455f4c494d49545f4558434545444544000000000000815250901515613371576040517f08c379a00000000000000000000000000000000000000000000000000000000081526004018080602001828103825283818151815260200191508051906020019080838360005b8381101561333657808201518184015260208101905061331b565b50505050905090810190601f1680156133635780820380516001836020036101000a031916815260200191505b509250505060405180910390fd5b50613385848961429d90919063ffffffff16565b925061339a8b8a613ebe90919063ffffffff16565b91506133ca826133bc85620f424063ffffffff16613eda90919063ffffffff16565b613f1290919063ffffffff16565b905060018d8154811015156133db57fe5b9060005260206000200160009054906101000a900473ffffffffffffffffffffffffffffffffffffffff1673ffffffffffffffffffffffffffffffffffffffff1663a9059cbb33866040518363ffffffff167c0100000000000000000000000000000000000000000000000000000000028152600401808373ffffffffffffffffffffffffffffffffffffffff1673ffffffffffffffffffffffffffffffffffffffff16815260200182815260200192505050602060405180830381600087803b1580156134a857600080fd5b505af11580156134bc573d6000803e3d6000fd5b505050506040513d60208110156134d257600080fd5b81019080805190602001909291905050505060018c8154811015156134f357fe5b9060005260206000200160009054906101000a900473ffffffffffffffffffffffffffffffffffffffff1673ffffffffffffffffffffffffffffffffffffffff166323b872dd33308e6040518463ffffffff167c0100000000000000000000000000000000000000000000000000000000028152600401808473ffffffffffffffffffffffffffffffffffffffff1673ffffffffffffffffffffffffffffffffffffffff1681526020018373ffffffffffffffffffffffffffffffffffffffff1673ffffffffffffffffffffffffffffffffffffffff1681526020018281526020019350505050602060405180830381600087803b1580156135f457600080fd5b505af1158015613608573d6000803e3d6000fd5b505050506040513d602081101561361e57600080fd5b8101908080519060200190929190505050503373ffffffffffffffffffffffffffffffffffffffff167f35ea94addbc62df281ade49cc2ad9b3d9259166170cf702928b4ddc045f7256e8f86604051808381526020018281526020019250505060405180910390a26136928e848484613f28565b5050505050505050505050505050565b6000816136d3846136c587620f424063ffffffff16613eda90919063ffffffff16565b613f1290919063ffffffff16565b1490509392505050565b6000806000806000806136ef8c614304565b95506136fa8b614304565b9450613707868b33612130565b801561371a5750613719858a33612130565b5b6040805190810160405280601781526020017f4d4d5f494e53554646494349454e545f42414c414e43450000000000000000008152509015156137f8576040517f08c379a00000000000000000000000000000000000000000000000000000000081526004018080602001828103825283818151815260200191508051906020019080838360005b838110156137bd5780820151818401526020810190506137a2565b50505050905090810190601f1680156137ea5780820380516001836020036101000a031916815260200191505b509250505060405180910390fd5b506001600560003373ffffffffffffffffffffffffffffffffffffffff1673ffffffffffffffffffffffffffffffffffffffff16815260200190815260200160002060008e8e604051602001808373ffffffffffffffffffffffffffffffffffffffff1673ffffffffffffffffffffffffffffffffffffffff166c010000000000000000000000000281526014018273ffffffffffffffffffffffffffffffffffffffff1673ffffffffffffffffffffffffffffffffffffffff166c01000000000000000000000000028152601401925050506040516020818303038152906040526040518082805190602001908083835b60208310151561390f57805182526020820191506020810190506020830392506138ea565b6001836020036101000a03801982511681845116808217855250505050505090500191505060405180910390206000191660001916815260200190815260200160002060006101000a81548160ff02191690831515021790555060018681548110151561397857fe5b9060005260206000200160009054906101000a900473ffffffffffffffffffffffffffffffffffffffff1673ffffffffffffffffffffffffffffffffffffffff166323b872dd33308d6040518463ffffffff167c0100000000000000000000000000000000000000000000000000000000028152600401808473ffffffffffffffffffffffffffffffffffffffff1673ffffffffffffffffffffffffffffffffffffffff1681526020018373ffffffffffffffffffffffffffffffffffffffff1673ffffffffffffffffffffffffffffffffffffffff1681526020018281526020019350505050602060405180830381600087803b158015613a7957600080fd5b505af1158015613a8d573d6000803e3d6000fd5b505050506040513d6020811015613aa357600080fd5b810190808051906020019092919050505050600185815481101515613ac457fe5b9060005260206000200160009054906101000a900473ffffffffffffffffffffffffffffffffffffffff1673ffffffffffffffffffffffffffffffffffffffff166323b872dd33308c6040518463ffffffff167c0100000000000000000000000000000000000000000000000000000000028152600401808473ffffffffffffffffffffffffffffffffffffffff1673ffffffffffffffffffffffffffffffffffffffff1681526020018373ffffffffffffffffffffffffffffffffffffffff1673ffffffffffffffffffffffffffffffffffffffff1681526020018281526020019350505050602060405180830381600087803b158015613bc557600080fd5b505af1158015613bd9573d6000803e3d6000fd5b505050506040513d6020811015613bef57600080fd5b810190808051906020019092919050505050600185815481101515613c1057fe5b9060005260206000200160009054906101000a900473ffffffffffffffffffffffffffffffffffffffff1673ffffffffffffffffffffffffffffffffffffffff166318160ddd6040518163ffffffff167c0100000000000000000000000000000000000000000000000000000000028152600401602060405180830381600087803b158015613c9e57600080fd5b505af1158015613cb2573d6000803e3d6000fd5b505050506040513d6020811015613cc857600080fd5b8101908080519060200190929190505050935060028054809190600101613cef9190614575565b9250600283815481101515613d0057fe5b90600052602060002090600802019150613d1b878a8661450f565b9050338260000160006101000a81548173ffffffffffffffffffffffffffffffffffffffff021916908373ffffffffffffffffffffffffffffffffffffffff1602179055508b8260060160016101000a81548173ffffffffffffffffffffffffffffffffffffffff021916908373ffffffffffffffffffffffffffffffffffffffff1602179055508a8260070160006101000a81548173ffffffffffffffffffffffffffffffffffffffff021916908373ffffffffffffffffffffffffffffffffffffffff16021790555089826001018190555088826002018190555087826005018190555086826004018190555060018260060160006101000a81548160ff021916908315150217905550808260030160006101000a81548163ffffffff021916908363ffffffff1602179055503373ffffffffffffffffffffffffffffffffffffffff167f17bb6b49ca5e4d3f819d7bacfe56be4359e1e32146032ac3b9163de791b6dac4848c8c8b6040518085815260200184815260200183815260200182815260200194505050505060405180910390a2505050505050505050505050565b60008183019050828110151515613ed157fe5b80905092915050565b600080831415613eed5760009050613f0c565b8183029050818382811515613efe57fe5b04141515613f0857fe5b8090505b92915050565b60008183811515613f1f57fe5b04905092915050565b6000806000613f388686866136a2565b6040805190810160405280601481526020017f4d4d5f504f4f4c5f4e4f545f42414c414e434544000000000000000000000000815250901515614016576040517f08c379a00000000000000000000000000000000000000000000000000000000081526004018080602001828103825283818151815260200191508051906020019080838360005b83811015613fdb578082015181840152602081019050613fc0565b50505050905090810190601f1680156140085780820380516001836020036101000a031916815260200191505b509250505060405180910390fd5b506003600060028981548110151561402a57fe5b906000526020600020906008020160070160009054906101000a900473ffffffffffffffffffffffffffffffffffffffff1673ffffffffffffffffffffffffffffffffffffffff1673ffffffffffffffffffffffffffffffffffffffff1681526020019081526020016000205492506001838154811015156140a857fe5b9060005260206000200160009054906101000a900473ffffffffffffffffffffffffffffffffffffffff1673ffffffffffffffffffffffffffffffffffffffff166318160ddd6040518163ffffffff167c0100000000000000000000000000000000000000000000000000000000028152600401602060405180830381600087803b15801561413657600080fd5b505af115801561414a573d6000803e3d6000fd5b505050506040513d602081101561416057600080fd5b8101908080519060200190929190505050915061417e84868461450f565b90508560028881548110151561419057fe5b906000526020600020906008020160010181905550846002888154811015156141b557fe5b906000526020600020906008020160020181905550836002888154811015156141da57fe5b906000526020600020906008020160040181905550806002888154811015156141ff57fe5b906000526020600020906008020160030160006101000a81548163ffffffff021916908363ffffffff1602179055503373ffffffffffffffffffffffffffffffffffffffff167f0ba54af4fd4bc8fc69b966d6a9b0328563b99f218383fea300618e520cdb5a71888888886040518085815260200184815260200183815260200182815260200194505050505060405180910390a250505050505050565b60008282111515156142ab57fe5b818303905092915050565b60006142e6620f424063ffffffff166142d88685613eda90919063ffffffff16565b613f1290919063ffffffff16565b6142f9848661429d90919063ffffffff16565b111590509392505050565b600080600060011515600460008673ffffffffffffffffffffffffffffffffffffffff1673ffffffffffffffffffffffffffffffffffffffff16815260200190815260200160002060009054906101000a900460ff16151514156143a957600360008573ffffffffffffffffffffffffffffffffffffffff1673ffffffffffffffffffffffffffffffffffffffff168152602001908152602001600020549250614508565b839150600180549050905060018290806001815401808255809150509060018203906000526020600020016000909192909190916101000a81548173ffffffffffffffffffffffffffffffffffffffff021916908373ffffffffffffffffffffffffffffffffffffffff1602179055505080600360008673ffffffffffffffffffffffffffffffffffffffff1673ffffffffffffffffffffffffffffffffffffffff168152602001908152602001600020819055506001600460008673ffffffffffffffffffffffffffffffffffffffff1673ffffffffffffffffffffffffffffffffffffffff16815260200190815260200160002060006101000a81548160ff0219169083151502179055508373ffffffffffffffffffffffffffffffffffffffff167f61829f7e29cc6a558a9dc69c16ddaa1e2b95ced06dea4af45a5801f79ac7a4fb826040518082815260200191505060405180910390a28092505b5050919050565b600061456c614542620f424063ffffffff166145348588613eda90919063ffffffff16565b613f1290919063ffffffff16565b61455e85620f424063ffffffff16613eda90919063ffffffff16565b613f1290919063ffffffff16565b90509392505050565b8154818355818111156145a2576008028160080283600052602060002091820191016145a191906145a7565b5b505050565b61468391905b8082111561467f57600080820160006101000a81549073ffffffffffffffffffffffffffffffffffffffff0219169055600182016000905560028201600090556003820160006101000a81549063ffffffff0219169055600482016000905560058201600090556006820160006101000a81549060ff02191690556006820160016101000a81549073ffffffffffffffffffffffffffffffffffffffff02191690556007820160006101000a81549073ffffffffffffffffffffffffffffffffffffffff0219169055506008016145ad565b5090565b905600a165627a7a7230582055effbd9491144c9cca5689158dd28f27bdef568e78cb0bf78f2a0fba34461da0029",
  "linkReferences": {},
  "deployedLinkReferences": {}
}